:100000000C9462000C948A000C948A000C948A0070
:100010000C948A000C948A000C948A000C948A0038
:100020000C948A000C948A000C948A000C948A0028
:100030000C948A000C948A000C948A000C948A0018
:100040000C9414040C948A000C948A000C948A007A
:100050000C948A000C948A000C948A000C948A00F8
:100060000C948A000C948A000000000024002700F1
:100070002A0000000000250028002B0000000000DE
:1000800023002600290004040404040404040202DA
:100090000202020203030303030301020408102007
:1000A0004080010204081020010204081020000012
:1000B0000007000201000003040600000000000029
:1000C00000007C0211241FBECFEFD8E0DEBFCDBF01
:1000D00011E0A0E0B1E0E2E3FFE002C005900D9284
:1000E000A032B107D9F711E0A0E2B1E001C01D9242
:1000F000A034B107E1F710E0C4ECD0E004C02297CF
:10010000FE010E949307C23CD107C9F70E94050473
:100110000C9497070C9400000F931F938C01FC0123
:10012000868160E00E94390581E090E00E94B5047C
:10013000F801868161E00E94390581E090E00E942B
:10014000B504F801868160E00E94390584E690E0FC
:100150000E94B5041F910F910895CF92DF92EF9204
:10016000FF920F931F93CF93DF93D82EC92E282F82
:10017000392FC9018C01C0E0D0E0E62EFF24F80140
:10018000878161E00E94FA04B7010C2E02C07595C8
:1001900067950A94E2F76170F80187810E9439053A
:1001A00021960F5F1F4FC830D10549F78D2D9C2D2B
:1001B0000E948C00DF91CF911F910F91FF90EF90E3
:1001C000DF90CF900895CF92DF92EF92FF920F933E
:1001D0001F93CF93DF93D82EC92E282F392FC90113
:1001E0008C01C0E0D0E0E62EFF24F801878161E0B9
:1001F0000E94FA04B7010C2E02C0759567950A9407
:10020000E2F76170F80187810E94390521960F5F3E
:100210001F4FC430D10549F78D2D9C2D0E948C00B5
:10022000DF91CF911F910F91FF90EF90DF90CF90D2
:1002300008951F93CF93DF93EC01162F8C81642FC9
:100240000E9439058D818F3F19F060E00E943905C9
:100250008F8584FF05C0CE01612F0E94AD000EC0C6
:10026000612F70E084E0759567958A95E1F7CE017E
:100270000E94E300CE01612F0E94E300DF91CF9145
:100280001F91089541E00E94190181E090E00895D6
:1002900040E00E9419010895FC016089862F846066
:1002A000808B6C60CF010E9448010895DF93CF934B
:1002B000CDB7DEB728970FB6F894DEBF0FBECDBF1F
:1002C0009C01FE013196A7E1B1E088E00D9001921A
:1002D0008150E1F7F9018389481710F0482F415008
:1002E000E42FF0E0EE0FFF1FEC0FFD1F8181680F80
:1002F0006068C9010E94480128960FB6F894DEBFD5
:100300000FBECDBFCF91DF91089561E00E944801FB
:1003100080ED97E00E94B5040895CF93DF93EC0140
:10032000423018F08F8588608F874B8B1C8A222380
:1003300029F0413019F48F8584608F8780E593EC34
:100340000E94B5048C8160E00E9439058E8160E0D6
:100350000E9439058D818F3F19F060E00E943905B8
:100360006F8564FD1DC0CE0163E00E94E30084E957
:1003700091E10E94B504CE0163E00E94E30084E9AC
:1003800091E10E94B504CE0163E00E94E30086E99A
:1003900090E00E94B504CE0162E00E94E30016C026
:1003A0006062CE010E94480184E991E10E94B50497
:1003B0006F856062CE010E94480186E990E00E944C
:1003C000B5046F856062CE010E9448016F8560624E
:1003D000CE010E94480184E0888BCE010E944C012E
:1003E000CE010E94850182E0898BCE0166E00E94E9
:1003F0004801DF91CF9108956F927F928F92AF92D3
:10040000CF92EF920F931F93DF93CF93CDB7DEB7C9
:100410003C01162F842FF301448325830683E78252
:10042000C086A18682869D8593879E8594879F85B9
:1004300095879889968761E00E94FA04F301858187
:100440008F3F19F061E00E94FA04F301868161E0B8
:100450000E94FA04112319F0F301178603C080E10A
:10046000F3018787C30160E141E020E00E948D0134
:10047000CF91DF911F910F91EF90CF90AF908F9020
:100480007F906F9008958F92AF92CF92EF920F93DB
:100490001F93CF93DF93DC01362F542F722F102F31
:1004A000AE2C8C2C13961C921E92129783E191E035
:1004B00011969C938E9300D000D0EDB7FEB7319685
:1004C000CDB7DEB71982118212821382CD0161E0AD
:1004D000432F2FEF052FE72EC12E0E94FC010F9016
:1004E0000F900F900F90DF91CF911F910F91EF9090
:1004F000CF90AF908F900895CF92EF920F9382E2BA
:1005000091E06CE04BE025E004E053E0E52E32E0C2
:10051000C32E0E9443020F91EF90CF90089588E080
:1005200060E00E94390582E090E00E94B50488E016
:1005300061E00E9439058AE090E00E94B50488E0FD
:1005400060E00E94390587E061E020E432E44FE09A
:1005500050E00E948D05882777FD8095982F0E9496
:10056000C4062DEC3CEC48E652E40E9429060E94A9
:100570009106CB010895CF93DF930E948F02EC0187
:1005800097FD26C080912001909121019E01281B9A
:10059000390BC90137FF03C0909581959F4F039791
:1005A0008CF0D0932101C093200182E291E060E0C1
:1005B00041E00E94560182E291E0BE014AE050E033
:1005C0000E94EF036AE070E080E090E00E945C042B
:1005D000DF91CF9108950F931F9302E211E0C801BC
:1005E00060E142E020E00E948D01C80160E071E01E
:1005F0000E94020488E061E00E94FA0487E060E063
:100600000E94FA041F910F910895CF92DF92EF920A
:10061000FF920F931F93CF93DF937C016B018A01AD
:10062000C0E0D0E00FC0D6016D916D01D701ED9112
:10063000FC910190F081E02DC7010995C80FD91FE9
:10064000015010400115110571F7CE01DF91CF91D6
:100650001F910F91FF90EF90DF90CF900895CF936F
:10066000DF93EC016115710519F420E030E00FC053
:10067000DB010D900020E9F71197A61BB70BE8816D
:10068000F9810280F381E02DAD0109959C01C9013A
:10069000DF91CF9108954F925F927F928F929F92B8
:1006A000AF92BF92CF92DF92EF92FF920F931F9380
:1006B000DF93CF93CDB7DEB7A1970FB6F894DEBF27
:1006C0000FBECDBF2C01742ECB01223008F42AE0DE
:1006D00019A231E2C32ED12CCC0EDD1E822E99241C
:1006E000AA24BB24672D752FA50194010E946F07D2
:1006F00079018A01C801B701A50194010E94500740
:10070000472D461B0894C108D1084A3014F4405DB7
:1007100001C0495CF6014083E114F10401051105B3
:1007200021F07E2C5F2DC801DDCFC201B6010E94F1
:100730002F03A1960FB6F894DEBF0FBECDBFCF91A9
:10074000DF911F910F91FF90EF90DF90CF90BF90BE
:10075000AF909F908F907F905F904F900895CF9231
:10076000DF92EF92FF920F931F93CF93DF93EC01F1
:100770006A017B012115310541F4E881F98101907D
:10078000F081E02D642F09951FC02A303105D1F486
:1007900077FF17C0E881F9810190F081E02D6DE2CB
:1007A00009958C0144275527BA014C195D096E093A
:1007B0007F09CE012AE00E944B039801280F391FC0
:1007C00004C02AE00E944B039C01C901DF91CF9134
:1007D0001F910F91FF90EF90DF90CF900895EF92CF
:1007E000FF920F931F937B019A010027F7FC00955E
:1007F000102FB801A7010E94AF031F910F91FF9026
:10080000EF9008950E942F030895CF93DF930E94E5
:10081000BF040E94EB02C0E0D0E00E94BB02209720
:10082000E1F30E940000F9CF1F920F920FB60F92D2
:1008300011242F933F938F939F93AF93BF938091F6
:100840003B0190913C01A0913D01B0913E0130915E
:100850003F010196A11DB11D232F2D5F2D3720F0E3
:100860002D570196A11DB11D20933F0180933B019F
:1008700090933C01A0933D01B0933E0180913701DC
:1008800090913801A0913901B0913A010196A11DD2
:10089000B11D8093370190933801A0933901B09333
:1008A0003A01BF91AF919F918F913F912F910F90FE
:1008B0000FBE0F901F9018959B01AC017FB7F89465
:1008C0008091370190913801A0913901B0913A019E
:1008D00066B5A89B05C06F3F19F00196A11DB11D1B
:1008E0007FBFBA2FA92F982F8827860F911DA11D92
:1008F000B11D62E0880F991FAA1FBB1F6A95D1F72F
:10090000BC012DC0FFB7F894809137019091380158
:10091000A0913901B0913A01E6B5A89B05C0EF3F1F
:1009200019F00196A11DB11DFFBFBA2FA92F982F55
:1009300088278E0F911DA11DB11DE2E0880F991F20
:10094000AA1FBB1FEA95D1F7861B970B885E9340C1
:10095000C8F2215030404040504068517C4F211532
:1009600031054105510571F60895019739F0880F59
:10097000991F880F991F02970197F1F708957894AE
:1009800084B5826084BD84B5816084BD85B5826094
:1009900085BD85B5816085BDEEE6F0E08081816032
:1009A0008083E1E8F0E01082808182608083808132
:1009B00081608083E0E8F0E0808181608083E1EB0A
:1009C000F0E0808184608083E0EBF0E080818160F2
:1009D0008083EAE7F0E080818460808380818260A8
:1009E0008083808181608083808180688083109291
:1009F000C1000895CF93DF93482F50E0CA01865677
:100A00009F4FFC0134914A575F4FFA01849188232C
:100A100069F190E0880F991FFC01E859FF4FA591FB
:100A2000B491FC01EE58FF4FC591D491662351F467
:100A30002FB7F8948C91932F909589238C9388816C
:100A400089230BC0623061F42FB7F8948C91932FF7
:100A5000909589238C938881832B88832FBF06C030
:100A60009FB7F8948C91832B8C939FBFDF91CF918C
:100A70000895482F50E0CA0182559F4FFC012491F0
:100A8000CA0186569F4FFC0194914A575F4FFA0165
:100A90003491332309F440C0222351F1233071F003
:100AA000243028F42130A1F0223011F514C0263072
:100AB000B1F02730C1F02430D9F404C08091800017
:100AC0008F7703C0809180008F7D8093800010C05D
:100AD00084B58F7702C084B58F7D84BD09C08091B5
:100AE000B0008F7703C08091B0008F7D8093B000FD
:100AF000E32FF0E0EE0FFF1FEE58FF4FA591B491EA
:100B00002FB7F894662321F48C919095892302C025
:100B10008C91892B8C932FBF08958F929F92AF92C7
:100B2000BF92CF92DF92EF92FF920F931F93CF93DA
:100B3000DF93A82FB0E0CD0186569F4FFC01849033
:100B4000AA57BF4FFD018491662311F4992401C077
:100B5000982C6FEFA62E6FEFB62E6FEFC62E6FE0BC
:100B6000D62EA222B322C422D522682F70E0660FAF
:100B7000771F64587F4FEE24FF248701FB01A59166
:100B8000B4910BC0EA14FB040C051D0509F44EC01A
:100B90000894E11CF11C011D111D8C9188218915FF
:100BA00089F30CC0EA14FB040C051D0509F43EC0D2
:100BB0000894E11CF11C011D111D03C0FB01A5914E
:100BC000B4918C918821891569F720E030E040E0EC
:100BD00050E0FB01C591D4910FC0DA01C9018E0D1F
:100BE0009F1DA01FB11F8A159B05AC05BD05F1F027
:100BF0002F5F3F4F4F4F5F4F88818821891569F3E1
:100C0000CA01B90125E130E040E050E00E94500700
:100C10009B01AC01205F3F4F4F4F5F4F84E05695E3
:100C20004795379527958A95D1F704C020E030E0A5
:100C300040E050E0B901CA01DF91CF911F910F91BF
:100C4000FF90EF90DF90CF90BF90AF909F908F90EC
:100C500008950CD0EBC0E3D040F0DAD030F021F4AE
:100C60005F3F19F0CCC0511115C1CFC0F0D098F33F
:100C70009923C9F35523B1F3951B550BBB27AA271D
:100C800062177307840738F09F5F5F4F220F331F8F
:100C9000441FAA1FA9F333D00E2E3AF0E0E830D05B
:100CA00091505040E695001CCAF729D0FE2F27D05E
:100CB000660F771F881FBB1F261737074807AB072C
:100CC000B0E809F0BB0B802DBF01FF2793585F4FA1
:100CD0002AF09E3F510568F092C0DCC05F3FECF304
:100CE000983EDCF3869577956795B795F7959F5F66
:100CF000C9F7880F911D9695879597F90895E1E0BA
:100D0000660F771F881FBB1F621773078407BA0718
:100D100020F0621B730B840BBA0BEE1F88F7E09573
:100D2000089504D06894B111B5C0089598D088F0A2
:100D30009F5790F0B92F9927B751A0F0D1F0660FC7
:100D4000771F881F991F1AF0BA95C9F712C0B130E2
:100D500081F09FD0B1E008959CC0672F782F88273D
:100D6000B85F39F0B93FCCF3869577956795B39521
:100D7000D9F73EF490958095709561957F4F8F4F90
:100D80009F4F0895E89409C097FB3EF49095809595
:100D9000709561957F4F8F4F9F4F9923A9F0F92F41
:100DA00096E9BB279395F695879577956795B795BF
:100DB000F111F8CFFAF4BB0F11F460FF1BC06F5FA5
:100DC0007F4F8F4F9F4F16C0882311F096E911C0B7
:100DD000772321F09EE8872F762F05C0662371F0D8
:100DE00096E8862F70E060E02AF09A95660F771FEC
:100DF000881FDAF7880F9695879597F9089597F9E0
:100E00009F6780E870E060E008959FEF80EC0895B0
:100E100000240A94161617061806090608950024D9
:100E20000A9412161306140605060895092E039453
:100E3000000C11F4882352F0BB0F40F4BF2B11F4C7
:100E400060FF04C06F5F7F4F8F4F9F4F089557FD26
:100E50009058440F551F59F05F3F71F04795880F28
:100E600097FB991F61F09F3F79F0879508951216BF
:100E700013061406551FF2CF4695F1DF08C016166B
:100E800017061806991FF1CF86957105610508941C
:100E90000895E894BB2766277727CB0197F9089533
:100EA000629FD001739FF001829FE00DF11D649F4E
:100EB000E00DF11D929FF00D839FF00D749FF00DDA
:100EC000659FF00D9927729FB00DE11DF91F639F7B
:100ED000B00DE11DF91FBD01CF0111240895A1E25C
:100EE0001A2EAA1BBB1BFD010DC0AA1FBB1FEE1FA4
:100EF000FF1FA217B307E407F50720F0A21BB30BEF
:100F0000E40BF50B661F771F881F991F1A9469F76A
:100F100060957095809590959B01AC01BD01CF01C6
:100F20000895EE0FFF1F0590F491E02D0994F894B9
:020F3000FFCFF1
:100F320044697374616E63652028636D293A000009
:100F420000000042010503000040001400540000AC
:00000001FF
