:100000000C9463000C948B000C948B000C948B006C
:100010000C948B000C948B000C948B000C948B0034
:100020000C948B000C948B000C948B000C948B0024
:100030000C948B000C948B000C948B000C948B0014
:100040000C940E0F0C948B000C94200C0C94720CDE
:100050000C948B000C948B000C948B000C948B00F4
:100060000C948B000C948B000000000024002700EF
:100070002A0000000000250028002B0000000000DE
:1000800023002600290004040404040404040202DA
:100090000202020203030303030301020408102007
:1000A0004080010204081020010204081020000012
:1000B0000007000201000003040600000000000029
:1000C0000000CE06E10D11241FBECFEFD8E0DEBF49
:1000D000CDBF12E0A0E0B1E0E0E0F3E202C00590A5
:1000E0000D92AC3CB107D9F713E0ACECB2E001C023
:1000F0001D92A83FB107E1F710E0C6ECD0E004C0C4
:100100002297FE010E944311C23CD107C9F70E9409
:10011000FD0E0C947E110C940000AEE0B0E0E3E91B
:10012000F0E00C9455110D891E8986E08C831A83AA
:1001300009838FEF9FE79E838D839E01275E3F4F4C
:10014000CE0101966F89788DA9010E94CD002F8183
:100150003885020F131FF80110822E96E4E00C94EC
:100160007111AEE0B0E0E7EBF0E00C9455118C01BA
:1001700086E08C831A8309838FEF9FE79E838D83AC
:10018000CE0101960E94CD00EF81F885E00FF11FAE
:1001900010822E96E4E00C947111ABE0B0E0E3ED38
:1001A000F0E00C9447113C012B015A01FC0117822D
:1001B0001682838181FD03C06FEF7FEFC6C19AE095
:1001C000892E1E010894211C311CF3012381F201A8
:1001D00023FD859123FF81912F01882309F4B2C16A
:1001E000853239F423FD859123FF81912F018532DA
:1001F00029F490E0B3010E94C002E7CF982FFF24BA
:10020000EE249924FFE1FF15D0F09B3269F09C3277
:1002100028F4903259F0933291F40EC09D3249F097
:10022000903369F441E024C052E0F52A84E0F82AD2
:1002300028C098E0F92A25C0E0E1FE2A22C0F7FC98
:1002400029C0892F80538A3070F4F6FE05C0989C2F
:10025000902C1124980E15C0E89CE02C1124E80E77
:10026000F0E2FF2A0EC09E3229F4F6FC6BC140E496
:10027000F42A07C09C3619F450E8F52A02C09836D3
:1002800049F4F20123FD959123FF91912F019923C8
:1002900009F0B8CF892F8554833018F0805283300D
:1002A00038F444E050E0A40EB51E5FE359830FC05C
:1002B000933631F0933779F0933509F056C020C06A
:1002C000F5018081898342E050E0A40EB51E6101F2
:1002D00001E010E012C0F501C080D180F6FC03C03F
:1002E0006FEF7FEF02C0692D70E042E050E0A40E96
:1002F000B51EC6010E94B5028C015FE7F52214C04D
:10030000F501C080D180F6FC03C06FEF7FEF02C023
:10031000692D70E042E050E0A40EB51EC6010E94B7
:10032000AA028C0150E8F52AF3FE07C01AC080E249
:1003300090E0B3010E94C002EA948E2D90E008176D
:100340001907A8F30EC0F601F7FC8591F7FE81911D
:100350006F0190E0B3010E94C002E110EA940150E5
:1003600010400115110579F7EAC0943611F099365D
:1003700069F5F7FE08C0F501208131814281538182
:1003800084E090E00AC0F501808191819C014427BE
:1003900037FD4095542F82E090E0A80EB91E9FE6ED
:1003A000F92257FF09C050954095309521953F4F50
:1003B0004F4F5F4FE0E8FE2ACA01B901A1012AE0D0
:1003C00030E00E94EC02D82ED21840C0953729F4B4
:1003D0001F2D1F7E2AE030E01DC01F2D197F9F3684
:1003E00061F0903720F4983509F0ACC00FC0903719
:1003F00039F0983709F0A6C004C028E030E00AC000
:10040000106114FD146020E130E004C014FD16609A
:1004100020E132E017FF08C0F5016081718182811F
:10042000938144E050E008C0F50180819181BC01D6
:1004300080E090E042E050E0A40EB51EA1010E94D1
:10044000EC02D82ED2188FE7F82EF122F6FE0BC060
:100450005EEFF522D91438F4F4FE07C0F2FC05C0B3
:100460008FEEF82202C01D2D01C0192DF4FE0DC023
:10047000FE01ED0DF11D8081803319F499EEF92212
:1004800008C01F5FF2FE05C003C08F2D867809F0FB
:100490001F5F0F2DF3FC14C0F0FE0FC01E1510F0EF
:1004A0009D2C0BC09D2C9E0C911A1E2D06C080E227
:1004B00090E0B3010E94C0021F5F1E15C0F304C08C
:1004C0001E1510F4E11A01C0EE2404FF0FC080E3F2
:1004D00090E0B3010E94C00202FF1DC001FD03C0F5
:1004E00088E790E00EC088E590E00BC0802F86780A
:1004F00091F001FF02C08BE201C080E2F7FC8DE2C7
:1005000090E0B3010E94C00206C080E390E0B30116
:100510000E94C0029A94D914C0F3DA94F101ED0D4F
:10052000F11D808190E0B3010E94C002DD20A9F797
:1005300006C080E290E0B3010E94C002EA94EE207F
:10054000C1F743CEF30166817781CB012B96E2E1BF
:100550000C946311FC010590615070400110D8F7B4
:10056000809590958E0F9F1F0895FC0161507040FB
:1005700001900110D8F7809590958E0F9F1F0895D8
:100580000F931F93CF93DF938C01EB018B8181FF3E
:100590001BC082FF0DC02E813F818C819D81281759
:1005A000390764F4E881F9810193F983E88306C08F
:1005B000E885F985802F0995892B31F48E819F81FB
:1005C00001969F838E8302C00FEF1FEFC801DF915A
:1005D000CF911F910F910895FA01AA27283051F168
:1005E000203181F1E8946F936E7F6E5F7F4F8F4F64
:1005F0009F4FAF4FB1E03ED0B4E03CD0670F781FC3
:10060000891F9A1FA11D680F791F8A1F911DA11DA7
:100610006A0F711D811D911DA11D20D009F46894E0
:100620003F912AE0269F11243019305D3193DEF688
:10063000CF010895462F4770405D4193B3E00FD03E
:10064000C9F7F6CF462F4F70405D4A3318F0495D29
:1006500031FD4052419302D0A9F7EACFB4E0A6950C
:100660009795879577956795BA95C9F7009761052E
:10067000710508959B01AC010A2E06945795479584
:1006800037952795BA95C9F7620F731F841F951F79
:10069000A01D08950F931F938C01FC01868160E0DB
:1006A0000E946A1081E090E00E94640FF801868148
:1006B00061E00E946A1081E090E00E94640FF801FE
:1006C000868160E00E946A1084E690E00E94640FD8
:1006D0001F910F910895CF92DF92EF92FF920F93A7
:1006E0001F93CF93DF93D82EC92E282F392FC901FE
:1006F0008C01C0E0D0E0E62EFF24F801878161E0A4
:100700000E942B10B7010C2E02C0759567950A94B4
:10071000E2F76170F80187810E946A1021960F5FED
:100720001F4FC830D10549F78D2D9C2D0E944A03DB
:10073000DF91CF911F910F91FF90EF90DF90CF90BD
:100740000895CF92DF92EF92FF920F931F93CF9372
:10075000DF93D82EC92E282F392FC9018C01C0E074
:10076000D0E0E62EFF24F801878161E00E942B1083
:10077000B7010C2E02C0759567950A94E2F7617077
:10078000F80187810E946A1021960F5F1F4FC430C5
:10079000D10549F78D2D9C2D0E944A03DF91CF9101
:1007A0001F910F91FF90EF90DF90CF9008951F93CE
:1007B000CF93DF93EC01162F8C81642F0E946A1077
:1007C0008D818F3F19F060E00E946A108F8584FF51
:1007D00005C0CE01612F0E946B030EC0612F70E037
:1007E00084E0759567958A95E1F7CE010E94A10393
:1007F000CE01612F0E94A103DF91CF911F91089537
:1008000041E00E94D70381E090E0089540E00E941B
:10081000D7030895FC0161896E7F618B64600E943B
:1008200006040895FC016089862F8460808B6C60CB
:10083000CF010E9406040895DF93CF93CDB7DEB7B2
:1008400028970FB6F894DEBF0FBECDBF9C01FE0106
:100850003196A3EBB2E088E00D9001928150E1F770
:10086000F9018389481710F0482F4150E42FF0E038
:10087000EE0FFF1FEC0FFD1F8181680F6068C9013B
:100880000E94060428960FB6F894DEBF0FBECDBFB7
:10089000CF91DF91089561E00E94060480ED97E01A
:1008A0000E94640F0895CF93DF93EC01423018F05B
:1008B0008F8588608F874B8B1C8A222329F04130DB
:1008C00019F48F8584608F8780E593EC0E94640F14
:1008D0008C8160E00E946A108E8160E00E946A1044
:1008E0008D818F3F19F060E00E946A106F8564FD72
:1008F0001DC0CE0163E00E94A10384E991E10E9442
:10090000640FCE0163E00E94A10384E991E10E949B
:10091000640FCE0163E00E94A10386E990E00E948B
:10092000640FCE0162E00E94A10316C06062CE0196
:100930000E94060484E991E10E94640F6F85606261
:10094000CE010E94060486E990E00E94640F6F8544
:100950006062CE010E9406046F856062CE010E9433
:10096000060484E0888BCE010E941204CE010E940E
:100970004B0482E0898BCE0166E00E940604DF9181
:10098000CF9108956F927F928F92AF92CF92EF9214
:100990000F931F93DF93CF93CDB7DEB73C01162F94
:1009A000842FF301448325830683E782C086A186D2
:1009B00082869D8593879E8594879F859587988954
:1009C000968761E00E942B10F30185818F3F19F01B
:1009D00061E00E942B10F301868161E00E942B10E0
:1009E000112319F0F301178603C080E1F301878713
:1009F000C30160E141E020E00E945304CF91DF9108
:100A00001F910F91EF90CF90AF908F907F906F904C
:100A100008958F92AF92CF92EF920F931F93CF933F
:100A2000DF93DC01362F542F722F102FAE2C8C2C1D
:100A300013961C921E9212978FEA92E011969C9345
:100A40008E9300D000D0EDB7FEB73196CDB7DEB7AC
:100A50001982118212821382CD0161E0432F2FEFA0
:100A6000052FE72EC12E0E94C2040F900F900F9009
:100A70000F90DF91CF911F910F91EF90CF90AF909A
:100A80008F90089583E060E00E942B100E943A0B43
:100A900008959F92AF92BF92CF92DF92EF92FF9212
:100AA0000F931F93CF93DF93982E83E00E94A90F9B
:100AB000EC018091CC029091CD029E01281B390B54
:100AC000C90137FF03C0909581959F4F0A970CF499
:100AD00042C0D093CD02C093CC0200D000D0BE0162
:100AE000882777FD8095982F24E630E040E050E09D
:100AF000ADB7BEB711962D933D934D935C9314976C
:100B000020E030E040E050E0E1E0EE2EE4E0FE2EB8
:100B1000012D112DAA24BB2465010E94B30E609300
:100B2000A70200D0EDB7FEB7319680E091E0ADB7F7
:100B3000BEB712969C938E931197D383C28364831E
:100B400015820E947209EDB7FEB736960FB6F8947B
:100B5000FEBF0FBEEDBF8091A702891518F00E945D
:100B60009F0A02C00E94220B0E94D10ADF91CF91FE
:100B70001F910F91FF90EF90DF90CF90BF90AF90BB
:100B80009F9008950F931F938C0100D086E291E00F
:100B9000EDB7FEB7928381830E94720981E0F8016C
:100BA0008283118210820F900F900E94EB0B609352
:100BB000F1027093F2028093F3029093F4021F917A
:100BC0000F91089580E00E94A90F2FEF33E0281BBA
:100BD000390B83E0369527958A95E1F7253631055F
:100BE00010F023E630E0822F0895CF93DF938091B9
:100BF000CE02C82FD0E00E94E205C153DD4F8883AA
:100C00008091CE028D3129F08F5F8093CE028EEDE0
:100C100009C08FEC92E06EE10E94CD0B1092CE02E3
:100C20008091DF02DF91CF910895EF92FF921F93A1
:100C3000CF93DF93EC018A818C7F8A830E94EB0B38
:100C40002091F1023091F2024091F3025091F402AE
:100C5000621B730B840B950B64367105810591053E
:100C600008F496C00E94EB0B6093F1027093F202BD
:100C70008093F3029093F4020E94F505182F8E3DA5
:100C800009F486C0E82EFF2488819701281B3109CA
:100C9000C90137FF03C0909581959F4F05970CF4CC
:100CA00077C02A81822F81608A83888190E00596AF
:100CB0008E159F0574F423602A8319830E94EB0B21
:100CC0006093ED027093EE028093EF029093F00236
:100CD00039C00E94EB0B2091ED023091EE02409161
:100CE000EF025091F002621B730B840B950B605C5A
:100CF00077428940904010F500D000D000D085E4C4
:100D000091E0ADB7BEB712969C938E93119780EC8D
:100D100097E2A9E0B0E0EDB7FEB783839483A583A3
:100D2000B6830E94720919832DB73EB72A5F3F4FE1
:100D30000FB6F8943EBF0FBE2DBF04C08981811746
:100D400008F4198318838DB79EB708970FB6F894E7
:100D50009EBF0FBE8DBFEDB7FEB731968DE791E018
:100D6000ADB7BEB712969C938E931197F382E28231
:100D70008981848315828A81868317820E94720901
:100D8000EDB7FEB738960FB6F894FEBF0FBEEDBFB5
:100D9000DF91CF911F91FF90EF900895CF92EF9246
:100DA0000F9385E093E067E046E025E004E053E040
:100DB000E52E32E0C32E0E9409050F91EF90CF90EF
:100DC0000895EF92FF920F931F93CF93DF9382E0EA
:100DD0000E94A90F7C0181E00E94A90F8C018091E3
:100DE000FF0290910003801B910B97FF03C0909529
:100DF00081959F4F889784F48091FD029091FE0227
:100E00009701281B390BC90137FF03C090958195C5
:100E10009F4F0A970CF446C0F092FE02E092FD024A
:100E2000109300030093FF02C701805E9C4F801B5C
:100E3000910B65E070E00E94DD10EB018DB79EB76D
:100E400008970FB6F8949EBF0FBE8DBFEDB7FEB7E3
:100E5000319680EB91E0ADB7BEB712969C938E931E
:100E600011971383028375836483F782E6820E945D
:100E700072092DB73EB7285F3F4F0FB6F8943EBFBB
:100E80000FBE2DBFCF3FD10521F01CF0CFEFD0E03A
:100E900005C0CC38D10514F4CCE8D0E089E0BE011F
:100EA0000E94CB0FDF91CF911F910F91FF90EF9098
:100EB0000895EF92FF920F931F93DF93CF9300D08B
:100EC00000D0CDB7DEB77C010E94EB0B209101036F
:100ED000309102034091030350910403621B730B92
:100EE000840B950B645F71408040904008F41DC1F5
:100EF0000E94EB0B60930103709302038093030342
:100F0000909304032091F5023091F602D7018D9160
:100F10009C9128173907A1F185E093E060E041E05A
:100F20000E941C0400D000D000D0EDB7FEB731966F
:100F30008E010F5F1F4FADB7BEB712961C930E9375
:100F4000119781EF91E093838283D7018D919C91DA
:100F5000958384830E948D00EDB7FEB736960FB659
:100F6000F894FEBF0FBEEDBF85E093E0B8010E948C
:100F70009D0ED7018D919C919093F6028093F5027E
:100F8000F701828190E02091F7023091F802281752
:100F90003907A1F185E093E068E041E00E941C047C
:100FA00000D000D000D0EDB7FEB731968E010F5FB4
:100FB0001F4FADB7BEB712961C930E93119786EFD5
:100FC00091E093838283D70112968C91848315825A
:100FD0000E948D00EDB7FEB736960FB6F894FEBFAF
:100FE0000FBEEDBF85E093E0B8010E949D0ED701D2
:100FF00012968C918093F7021092F802F701838188
:1010000090E02091F9023091FA0228173907A1F1F6
:1010100085E093E06BE041E00E941C0400D000D02A
:1010200000D0EDB7FEB731968E010F5F1F4FADB701
:10103000BEB712961C930E93119786EF91E093839F
:101040008283D70113968C91848315820E948D0030
:10105000EDB7FEB736960FB6F894FEBF0FBEEDBFE4
:1010600085E093E0B8010E949D0ED70113968C9104
:101070008093F9021092FA0285E093E06DE041E07E
:101080000E941C048091A802882319F46BEF71E080
:1010900002C06DEF71E085E093E00E949D0E90E04C
:1010A0008091A802882309F491E09093A802F701A7
:1010B000848190E02091FB023091FC0228173907CF
:1010C000A1F185E093E06EE041E00E941C0400D0B5
:1010D00000D000D0EDB7FEB731968E010F5F1F4FE5
:1010E000ADB7BEB712961C930E93119786EF91E0A1
:1010F00093838283D70114968C91848315820E94F6
:101100008D00EDB7FEB736960FB6F894FEBF0FBE52
:10111000EDBF85E093E0B8010E949D0ED7011496C3
:101120008C918093FB021092FC020F900F900F9015
:101130000F90CF91DF911F910F91FF90EF90089545
:10114000AF92BF92CF92DF92EF92FF920F931F93D5
:10115000DF93CF9300D00F92CDB7DEB75C0175E07F
:10116000E72E73E0F72EC70164E040E00E941C0404
:1011700000D000D000D0EDB7FEB731968E010F5FE2
:101180001F4FADB7BEB712961C930E93119766EF23
:10119000C62E61E0D62ED382C282D5018C91848383
:1011A00015820E948D008DB79EB706960FB6F894F3
:1011B0009EBF0FBE8DBFC701B8010E949D0EC70123
:1011C0006DE040E00E941C0400D000D000D0EDB7DC
:1011D000FEB73196ADB7BEB712961C930E9311971A
:1011E000D382C282D50111968C91848315820E948C
:1011F0008D008DB79EB706960FB6F8949EBF0FBEB2
:101200008DBFC701B8010E949D0E0F900F900F90E7
:10121000CF91DF911F910F91FF90EF90DF90CF90D2
:10122000BF90AF900895FF920F931F93F82E05E0A3
:1012300013E0C80160E04F2D0E941C04C8016FEF4D
:1012400071E00E949D0EC80160E04F2D0E941C04B9
:101250001F910F91FF9008950F931F9300D080E18D
:1012600092E0EDB7FEB7928381830E9472090F90DE
:101270000F9081E060E00E942B1082E060E00E940D
:101280002B1005E013E0C80160E142E020E00E947D
:101290005304C8010E940A0489E061E00E942B10F7
:1012A00089E068EC70E00E94CB0F80E00E94130997
:1012B000C80168E272E00E949D0E81E00E9413095D
:1012C000C80169E372E00E949D0E0E94EB0B6093DF
:1012D00001037093020380930303909304031F910F
:1012E0000F910895AF92BF92CF92DF92EF92FF924B
:1012F0000F931F93DF93CF93CDB7DEB7C055D04088
:101300000FB6F894DEBF0FBECDBF9DE5E92EF12CE0
:10131000EC0EFD1ED701AD90BD907D01EDB7FEB77F
:101320003E970FB6F894FEBF0FBEEDBF31968E010B
:101330000F5F1F4FADB7BEB712961C930E93119758
:101340008AE492E09383828380911A0390911B0335
:101350009583848380911C038683178280911D036B
:101360008087118680911E038287138680911F03D8
:1013700090912003958784870E948D00EDB7FEB77A
:101380003E960FB6F894FEBF0FBEEDBF89ECC82E97
:1013900083E0D82EC601B8010E949D0EC801B50198
:1013A000A7010E94B100C601B8010E94A00EC05B57
:1013B000DF4F0FB6F894DEBF0FBECDBFCF91DF91E8
:1013C0001F910F91FF90EF90DF90CF90BF90AF9063
:1013D00008950E94EB0B2091250330912603409144
:1013E000270350912803621B730B840B950B605EDF
:1013F00073498440904018F10E94EB0B60932503E1
:101400007093260380932703909328030E94F40B84
:1014100000D000D000D02AE632E0EDB7FEB732832C
:10142000218363837483858396830E9472098DB7B9
:101430009EB706960FB6F8949EBF0FBE8DBF089557
:101440004091210350912203609123037091240362
:101450008AE193E00E94410B0E94E909089589EC1A
:1014600093E040E052EC61E070E00E94AD0C0E941D
:10147000EB0B6093210370932203809323039093DB
:10148000240308950E94110C0E94200A80E393E037
:101490000E94150680913203282F81FF1AC000D0C8
:1014A00000D081E892E0EDB7FEB792838183238379
:1014B00014820E9472090F900F900F900F900E945B
:1014C000EB0B609333037093340380933503909355
:1014D00036038091320380FF04C080E393E00E94D2
:1014E000A00840913303509134036091350370910B
:1014F000360389E293E00E94410B89E293E00E9467
:1015000059070E94E106809130030E944905089521
:101510000E941C0C0E942F0A0E942C0980E393E079
:101520000E94C2050E9442050E94EB0B60933303A8
:10153000709334038093350390933603089581E0CC
:1015400080933C030895EF92FF920F931F937C01C9
:101550000E94EB0B209138033091390340913A03FC
:1015600050913B03621B730B840B950B00E010E062
:101570006E157F058007910778F0809137038F5FA4
:10158000809337030E94EB0B609338037093390309
:1015900080933A0390933B031F910F91FF90EF903C
:1015A00008951F9380913C03882309F449C08091DA
:1015B0003703863019F1873070F4833041F184307D
:1015C00028F4813021F1823069F515C0843099F01A
:1015D000853041F51CC08930E9F08A3028F4873025
:1015E000C9F08830F9F410C08B30A1F08B3060F076
:1015F0008C30C1F414C088EE93E002C084EF91E017
:101600000E94A30A10E012C088EC90E0F9CF88EEA7
:1016100093E002C088EC90E00E94A30A06C080ED2F
:1016200097E0EECF81E08093370311E08091A9022B
:10163000811721F08AE0612F0E946A101093A9029D
:101640001F91089580913C03882389F081E0809365
:1016500037038AE060E00E946A100E94EB0B6093FF
:1016600038037093390380933A0390933B031092AD
:101670003C0308958AE061E00E942B100E94220B37
:1016800008954F925F926F927F928F929F92AF9246
:10169000BF92CF92DF92EF92FF920F931F932C0194
:1016A0007A018B010E94EB0B3B014C016E187F0805
:1016B000800A910AC401B30128EE33E040E050E013
:1016C0000E94F01079018A01C801B70120E831E5D4
:1016D00041E050E00E94F010F2013183208340E0AD
:1016E00050E0CA01B90120E83EEA4EEF5FEF0E94E8
:1016F000BE105B016C01AE0CBF1CC01ED11EC6012A
:10170000B50120E13EE040E050E00E94F010F2011F
:10171000228330E080E19EE0AC01249FC001259F40
:10172000900D349F900D1124AA2797FDA095BA2FF4
:10173000A81AB90ACA0ADB0AC601B5012CE330E0CF
:1017400040E050E00E94F010F20123838CE3289FD8
:1017500090011124442737FD4095542FA21AB30A53
:10176000C40AD50AA482C401B30128EE33E040E0E4
:1017700050E00E94F010F201768365831F910F9173
:10178000FF90EF90DF90CF90BF90AF909F908F90A1
:101790007F906F905F904F900895CF93DF93AC014F
:1017A000782FDC0121E012C011963C9111978A2F0D
:1017B000871B02C099838150EA01C80FD11DFE0129
:1017C00091913917B8F330832F5F1196261760F384
:1017D000DF91CF91089560913D0370913E03809118
:1017E0003F03909140030895DF93CF9300D0CDB78E
:1017F000DEB78091F4039091F503009711F488EF20
:1018000093E09E012F5F3F4F281B390B442737FD84
:101810004095542FB901CA010F900F90CF91DF91DD
:1018200008950E94560F60933D0370933E0380938A
:101830003F039093400308950E94110C089508956A
:101840001F920F920FB60F9211242F933F934F9335
:101850008F939F93EF93FF938091C00082FD1DC0F3
:101860004091C60020918103309182032F5F3F4F4A
:101870002F73307080918303909184032817390768
:1018800071F0E0918103F0918203EF5BFC4F4083A4
:10189000309382032093810302C08091C600FF91A0
:1018A000EF919F918F914F913F912F910F900FBE8C
:1018B0000F901F901895E091D503F091D603E05C4E
:1018C000FF4F8191919120813181805C9F4F821BDC
:1018D000930B60E470E00E94DD10892B11F00E94F0
:1018E0001F0C08951F920F920FB60F9211242F9381
:1018F0003F938F939F93EF93FF932091C503309174
:10190000C6038091C7039091C8032817390731F4A3
:101910008091C1008F7D8093C10014C0E091C70306
:10192000F091C803EB57FC4F20818091C703909141
:10193000C80301968F7390709093C8038093C70378
:101940002093C600FF91EF919F918F913F912F912E
:101950000F900FBE0F901F901895AF92BF92DF921D
:10196000EF92FF920F931F93CF93DF93EC017A01D5
:101970008B01DD24403081EE580780E0680780E06D
:10198000780711F0DD24D39491E0A92EB12CEC89D5
:10199000FD89DD2069F0C50108A002C0880F991FEC
:1019A0000A94E2F7808360E079E08DE390E005C07F
:1019B000108260E874E88EE190E0A80197010E942F
:1019C000F010215030404040504056954795379593
:1019D000279580E12030380720F0DD2011F0DD244C
:1019E000D6CFE889F9893083EA89FB89208319A257
:1019F000EE89FF89408121E030E0C9010C8C02C0F2
:101A0000880F991F0A94E2F7482B4083EE89FF89DB
:101A10004081C9010D8C02C0880F991F0A94E2F71A
:101A2000482B4083EE89FF894081C9010E8C02C09A
:101A3000880F991F0A94E2F7482B4083EE89FF89AB
:101A400080810F8C02C0220F331F0A94E2F7209589
:101A500028232083DF91CF911F910F91FF90EF906A
:101A6000DF90BF90AF900895DC011C96ED91FC9142
:101A70001D97E05CFF4F8191919120813181805CC5
:101A80009F4F821B930B60E470E00E94DD1008956D
:101A9000DC011C96ED91FC911D97E05CFF4F2081CD
:101AA0003181E054F040DF01AE5BBF4F8D919C91DE
:101AB00011972817390719F42FEF3FEF07C08D91C1
:101AC0009C91E80FF91F8081282F30E0C90108950B
:101AD000DC011C96ED91FC911D97E05CFF4F20818D
:101AE0003181E054F040DF01AE5BBF4F8D919C919E
:101AF00011972817390719F42FEF3FEF10C08D9178
:101B00009C911197E80FF91F20818D919C9111975D
:101B100001968F73907011969C938E9330E0C9015B
:101B20000895DC0191968C919197882339F0549611
:101B3000ED91FC915597808186FFF9CF91961C928B
:101B40000895CF93DF93EC01EE85FF85E05CFF4FB6
:101B500020813181E054F0402F5F3F4F2F73307070
:101B6000DF01AE5BBF4F8D919C911197281739070C
:101B7000D1F3E05CFF4F80819181E054F040E80FA9
:101B8000F91F6083EE85FF85E05CFF4F3183208382
:101B9000EE89FF89208181E090E00F8C02C0880FE0
:101BA000991F0A94E2F7282B208381E089A3EC890E
:101BB000FD8980818064808381E090E0DF91CF9116
:101BC00008951092CC031092CB0388EE93E0A0E02E
:101BD000B0E08093CD039093CE03A093CF03B09356
:101BE000D0038FEB92E09093CA038093C90381E402
:101BF00093E09093D6038093D50385E893E0909388
:101C0000D8038093D70385EC90E09093DA03809318
:101C1000D90384EC90E09093DC038093DB0380ECA9
:101C200090E09093DE038093DD0381EC90E090934D
:101C3000E0038093DF0382EC90E09093E2038093D3
:101C4000E10386EC90E09093E4038093E30384E067
:101C50008093E50383E08093E60387E08093E703C6
:101C600085E08093E80381E08093E9030895CF92B3
:101C7000DF92EF92FF920F931F93CF93DF937C013C
:101C80006B018A01C0E0D0E00FC0D6016D916D01FB
:101C9000D701ED91FC910190F081E02DC7010995EC
:101CA000C80FD91F015010400115110571F7CE0161
:101CB000DF91CF911F910F91FF90EF90DF90CF9028
:101CC0000895EF92FF920F931F938C01DC01ED9129
:101CD000FC910190F081E02D6DE009957C01D80127
:101CE000ED91FC910190F081E02DC8016AE0099529
:101CF0009C012E0D3F1DC9011F910F91FF90EF9088
:101D00000895CF93DF93EC016115710519F420E07C
:101D100030E00FC0DB010D900020E9F71197A61B02
:101D2000B70BE881F9810280F381E02DAD010995BF
:101D30009C01C901DF91CF9108950E94810E089501
:101D4000EF92FF920F931F937C010E94810E8C01F2
:101D5000C7010E94610E080F191FC8011F910F9142
:101D6000FF90EF9008952F923F924F925F926F9263
:101D70007F928F929F92AF92BF92CF92DF92EF921B
:101D8000FF920F931F93DF93CF93CDB7DEB73B0145
:101D90004C0119012A016D897E898F89988D6A19F4
:101DA0007B098C099D09621A730A840A950AA401A9
:101DB00093010E94BE10E218F30804091509A80156
:101DC00097010E9412112A0D3B1D4C1D5D1DB9018A
:101DD000CA01CF91DF911F910F91FF90EF90DF909B
:101DE000CF90BF90AF909F908F907F906F905F90BB
:101DF0004F903F902F9008950895CF93DF930E94C6
:101E00006E0F0E94FC0E0E94880ACBE5DCE00E9467
:101E1000420A2097E1F30E945B0CF9CF1F920F92C8
:101E20000FB60F9211242F933F938F939F93AF93ED
:101E3000BF938091EF039091F003A091F103B091D3
:101E4000F2033091F3030196A11DB11D232F2D5FE5
:101E50002D3720F02D570196A11DB11D2093F303BE
:101E60008093EF039093F003A093F103B093F203F8
:101E70008091EB039091EC03A091ED03B091EE0300
:101E80000196A11DB11D8093EB039093EC03A093E9
:101E9000ED03B093EE03BF91AF919F918F913F916E
:101EA0002F910F900FBE0F901F9018958FB7F89439
:101EB0002091EF033091F0034091F1035091F20330
:101EC0008FBFB901CA010895019739F0880F991F92
:101ED000880F991F02970197F1F70895789484B5B8
:101EE000826084BD84B5816084BD85B5826085BD16
:101EF00085B5816085BDEEE6F0E0808181608083FC
:101F0000E1E8F0E0108280818260808380818160DE
:101F10008083E0E8F0E0808181608083E1EBF0E0A5
:101F2000808184608083E0EBF0E080818160808349
:101F3000EAE7F0E080818460808380818260808332
:101F40008081816080838081806880831092C1005D
:101F50000895982F8E3008F09E5097708091AA02B5
:101F60008295880F880F807C892B80937C008091DC
:101F70007A00806480937A0080917A0086FDFCCF9D
:101F80002091780040917900942F80E030E0282B58
:101F9000392BC90108951F93CF93DF93182FEB01BD
:101FA00061E00E942B10209709F44AC0CF3FD10571
:101FB00009F449C0E12FF0E0E255FF4F84918330EE
:101FC000C1F0843028F4813051F08230B1F50CC07A
:101FD000863019F1873049F1843079F514C084B521
:101FE000806884BDC7BD33C084B5806284BDC8BD70
:101FF0002EC080918000806880938000D0938900FB
:10200000C093880024C0809180008062809380000B
:10201000D0938B00C0938A001AC08091B000806872
:102020008093B000C093B30012C08091B000806272
:102030008093B000C093B4000AC0C038D1051CF42E
:10204000812F60E002C0812F61E00E946A10DF9161
:10205000CF911F910895CF93DF93482F50E0CA018D
:1020600086569F4FFC0134914A575F4FFA01849185
:10207000882369F190E0880F991FFC01E859FF4F10
:10208000A591B491FC01EE58FF4FC591D491662300
:1020900051F42FB7F8948C91932F909589238C93BA
:1020A000888189230BC0623061F42FB7F8948C913A
:1020B000932F909589238C938881832B88832FBFBE
:1020C00006C09FB7F8948C91832B8C939FBFDF91B0
:1020D000CF910895482F50E0CA0182559F4FFC01CF
:1020E0002491CA0186569F4FFC0194914A575F4F35
:1020F000FA013491332309F440C0222351F12330F3
:1021000071F0243028F42130A1F0223011F514C0F0
:102110002630B1F02730C1F02430D9F404C08091CA
:1021200080008F7703C0809180008F7D8093800036
:1021300010C084B58F7702C084B58F7D84BD09C07F
:102140008091B0008F7703C08091B0008F7D809325
:10215000B000E32FF0E0EE0FFF1FEE58FF4FA59108
:10216000B4912FB7F894662321F48C91909589232C
:1021700002C08C91892B8C932FBF0895629FD00150
:10218000739FF001829FE00DF11D649FE00DF11D32
:10219000929FF00D839FF00D749FF00D659FF00DE1
:1021A0009927729FB00DE11DF91F639FB00DE11DCE
:1021B000F91FBD01CF011124089597FB092E0726B1
:1021C0000AD077FD04D049D006D000201AF47095CB
:1021D00061957F4F0895F6F7909581959F4F0895EB
:1021E000A1E21A2EAA1BBB1BFD010DC0AA1FBB1F1B
:1021F000EE1FFF1FA217B307E407F50720F0A21B8D
:10220000B30BE40BF50B661F771F881F991F1A94F9
:1022100069F760957095809590959B01AC01BD0123
:10222000CF01089597FB092E05260ED057FD04D047
:10223000D7DF0AD0001C38F4509540953095219591
:102240003F4F4F4F5F4F0895F6F7909580957095EB
:1022500061957F4F8F4F9F4F0895AA1BBB1B51E184
:1022600007C0AA1FBB1FA617B70710F0A61BB70B06
:10227000881F991F5A95A9F780959095BC01CD01AB
:102280000895EE0FFF1F0590F491E02D09942F9211
:102290003F924F925F926F927F928F929F92AF92F6
:1022A000BF92CF92DF92EF92FF920F931F93CF9343
:1022B000DF93CDB7DEB7CA1BDB0B0FB6F894DEBFDA
:1022C0000FBECDBF09942A88398848885F846E8400
:1022D0007D848C849B84AA84B984C884DF80EE804A
:1022E000FD800C811B81AA81B981CE0FD11D0FB653
:1022F000F894DEBF0FBECDBFED010895F894FFCF77
:1023000041646A757374656420616C61726D2073D9
:10231000656E73697469766974792E202575203D20
:10232000202575252500496E697469616C697A6993
:102330006E6720687967726F6D65746572206D6F66
:1023400064756C65005265736574696E67206D61B4
:10235000782070726F63206261736564206F6E20F5
:1023600061646F7074696F6E2074696D6520616659
:10237000746572207761746572696E67004D6F696C
:10238000737475726520686173206368616E676538
:1023900064203D20257525252C204D61783A202587
:1023A0007525252C205374617475733A20256400BB
:1023B00041646F7074696E67204C434420626163AE
:1023C0006B6C696768742E2053656E736F723A2068
:1023D00025752C204C43443A2025752C2041646AF5
:1023E0007573742864656620353030293A20257568
:1023F000002530336400253032640020003A00208C
:1024000020202020202020202020202020202000EC
:10241000496E697469616C697A696E67204C4344DE
:10242000206D6F64756C65004E4F573A3030252033
:10243000204D41583A30302500303030202D2D7E4F
:102440002030303A30303A3030003E3E5B25303379
:10245000752D253032753A253032753A2530327572
:102460002C253033755D2D3E2000537461747573D7
:10247000202D3E20467265652052414D3A2025753B
:10248000005265636F676E697A656420706C616E77
:1024900074207761746572696E672C20737461743F
:1024A00075733A202575001E01FF01000000000031
:1024B00004370E000040001400540000000000A18A
:0C24C0000D370E340D680D480D910D0015
:00000001FF
