:100000000C9463000C948B000C948B000C948B006C
:100010000C948B000C948B000C948B000C948B0034
:100020000C948B000C948B000C948B000C948B0024
:100030000C948B000C948B000C948B000C948B0014
:100040000C9481100C948B000C94930D0C94E50D82
:100050000C948B000C948B000C948B000C948B00F4
:100060000C948B000C948B000000000024002700EF
:100070002A0000000000250028002B0000000000DE
:1000800023002600290004040404040404040202DA
:100090000202020203030303030301020408102007
:1000A0004080010204081020010204081020000012
:1000B0000007000201000003040600000000000029
:1000C0000000BD05540F11241FBECFEFD8E0DEBFE6
:1000D000CDBF12E0A0E0B1E0E8E9F6E202C0059091
:1000E0000D92A239B107D9F713E0A2E9B2E001C03D
:1000F0001D92AA3AB107E1F710E0C6ECD0E004C0C7
:100100002297FE010E940F13C23CD107C9F70E943B
:1001100070100C944A130C940000AEE0B0E0E3E9D8
:10012000F0E00C9421130D891E8986E08C831A83DC
:1001300009838FEF9FE79E838D839E01275E3F4F4C
:10014000CE0101966F89788DA9010E94CD002F8183
:100150003885020F131FF80110822E96E4E00C94EC
:100160003D13AEE0B0E0E7EBF0E00C9421138C011E
:1001700086E08C831A8309838FEF9FE79E838D83AC
:10018000CE0101960E94CD00EF81F885E00FF11FAE
:1001900010822E96E4E00C943D13ABE0B0E0E3ED6A
:1001A000F0E00C9413133C012B015A01FC0117825F
:1001B0001682838181FD03C06FEF7FEFC6C19AE095
:1001C000892E1E010894211C311CF3012381F201A8
:1001D00023FD859123FF81912F01882309F4B2C16A
:1001E000853239F423FD859123FF81912F018532DA
:1001F00029F490E0B3010E94C002E7CF982FFF24BA
:10020000EE249924FFE1FF15D0F09B3269F09C3277
:1002100028F4903259F0933291F40EC09D3249F097
:10022000903369F441E024C052E0F52A84E0F82AD2
:1002300028C098E0F92A25C0E0E1FE2A22C0F7FC98
:1002400029C0892F80538A3070F4F6FE05C0989C2F
:10025000902C1124980E15C0E89CE02C1124E80E77
:10026000F0E2FF2A0EC09E3229F4F6FC6BC140E496
:10027000F42A07C09C3619F450E8F52A02C09836D3
:1002800049F4F20123FD959123FF91912F019923C8
:1002900009F0B8CF892F8554833018F0805283300D
:1002A00038F444E050E0A40EB51E5FE359830FC05C
:1002B000933631F0933779F0933509F056C020C06A
:1002C000F5018081898342E050E0A40EB51E6101F2
:1002D00001E010E012C0F501C080D180F6FC03C03F
:1002E0006FEF7FEF02C0692D70E042E050E0A40E96
:1002F000B51EC6010E94B5028C015FE7F52214C04D
:10030000F501C080D180F6FC03C06FEF7FEF02C023
:10031000692D70E042E050E0A40EB51EC6010E94B7
:10032000AA028C0150E8F52AF3FE07C01AC080E249
:1003300090E0B3010E94C002EA948E2D90E008176D
:100340001907A8F30EC0F601F7FC8591F7FE81911D
:100350006F0190E0B3010E94C002E110EA940150E5
:1003600010400115110579F7EAC0943611F099365D
:1003700069F5F7FE08C0F501208131814281538182
:1003800084E090E00AC0F501808191819C014427BE
:1003900037FD4095542F82E090E0A80EB91E9FE6ED
:1003A000F92257FF09C050954095309521953F4F50
:1003B0004F4F5F4FE0E8FE2ACA01B901A1012AE0D0
:1003C00030E00E94EC02D82ED21840C0953729F4B4
:1003D0001F2D1F7E2AE030E01DC01F2D197F9F3684
:1003E00061F0903720F4983509F0ACC00FC0903719
:1003F00039F0983709F0A6C004C028E030E00AC000
:10040000106114FD146020E130E004C014FD16609A
:1004100020E132E017FF08C0F5016081718182811F
:10042000938144E050E008C0F50180819181BC01D6
:1004300080E090E042E050E0A40EB51EA1010E94D1
:10044000EC02D82ED2188FE7F82EF122F6FE0BC060
:100450005EEFF522D91438F4F4FE07C0F2FC05C0B3
:100460008FEEF82202C01D2D01C0192DF4FE0DC023
:10047000FE01ED0DF11D8081803319F499EEF92212
:1004800008C01F5FF2FE05C003C08F2D867809F0FB
:100490001F5F0F2DF3FC14C0F0FE0FC01E1510F0EF
:1004A0009D2C0BC09D2C9E0C911A1E2D06C080E227
:1004B00090E0B3010E94C0021F5F1E15C0F304C08C
:1004C0001E1510F4E11A01C0EE2404FF0FC080E3F2
:1004D00090E0B3010E94C00202FF1DC001FD03C0F5
:1004E00088E790E00EC088E590E00BC0802F86780A
:1004F00091F001FF02C08BE201C080E2F7FC8DE2C7
:1005000090E0B3010E94C00206C080E390E0B30116
:100510000E94C0029A94D914C0F3DA94F101ED0D4F
:10052000F11D808190E0B3010E94C002DD20A9F797
:1005300006C080E290E0B3010E94C002EA94EE207F
:10054000C1F743CEF30166817781CB012B96E2E1BF
:100550000C942F13FC010590615070400110D8F7E6
:10056000809590958E0F9F1F0895FC0161507040FB
:1005700001900110D8F7809590958E0F9F1F0895D8
:100580000F931F93CF93DF938C01EB018B8181FF3E
:100590001BC082FF0DC02E813F818C819D81281759
:1005A000390764F4E881F9810193F983E88306C08F
:1005B000E885F985802F0995892B31F48E819F81FB
:1005C00001969F838E8302C00FEF1FEFC801DF915A
:1005D000CF911F910F910895FA01AA27283051F168
:1005E000203181F1E8946F936E7F6E5F7F4F8F4F64
:1005F0009F4FAF4FB1E03ED0B4E03CD0670F781FC3
:10060000891F9A1FA11D680F791F8A1F911DA11DA7
:100610006A0F711D811D911DA11D20D009F46894E0
:100620003F912AE0269F11243019305D3193DEF688
:10063000CF010895462F4770405D4193B3E00FD03E
:10064000C9F7F6CF462F4F70405D4A3318F0495D29
:1006500031FD4052419302D0A9F7EACFB4E0A6950C
:100660009795879577956795BA95C9F7009761052E
:10067000710508959B01AC010A2E06945795479584
:1006800037952795BA95C9F7620F731F841F951F79
:10069000A01D08950F931F938C01FC01868160E0DB
:1006A0000E94361281E090E00E943011F8018681AC
:1006B00061E00E94361281E090E00E943011F80162
:1006C000868160E00E94361284E690E00E9430113C
:1006D0001F910F910895CF92DF92EF92FF920F93A7
:1006E0001F93CF93DF93D82EC92E282F392FC901FE
:1006F0008C01C0E0D0E0E62EFF24F801878161E0A4
:100700000E94F711B7010C2E02C0759567950A94E7
:10071000E2F76170F80187810E94361221960F5F1F
:100720001F4FC830D10549F78D2D9C2D0E944A03DB
:10073000DF91CF911F910F91FF90EF90DF90CF90BD
:100740000895CF92DF92EF92FF920F931F93CF9372
:10075000DF93D82EC92E282F392FC9018C01C0E074
:10076000D0E0E62EFF24F801878161E00E94F711B6
:10077000B7010C2E02C0759567950A94E2F7617077
:10078000F80187810E94361221960F5F1F4FC430F7
:10079000D10549F78D2D9C2D0E944A03DF91CF9101
:1007A0001F910F91FF90EF90DF90CF9008951F93CE
:1007B000CF93DF93EC01162F8C81642F0E943612A9
:1007C0008D818F3F19F060E00E9436128F8584FF83
:1007D00005C0CE01612F0E946B030EC0612F70E037
:1007E00084E0759567958A95E1F7CE010E94A10393
:1007F000CE01612F0E94A103DF91CF911F91089537
:1008000041E00E94D70381E090E0089540E00E941B
:10081000D7030895FC0161896E7F618B64600E943B
:1008200006040895FC016089862F8460808B6C60CB
:10083000CF010E9406040895DF93CF93CDB7DEB7B2
:1008400028970FB6F894DEBF0FBECDBF9C01FE0106
:100850003196AAE7B2E088E00D9001928150E1F76D
:10086000F9018389481710F0482F4150E42FF0E038
:10087000EE0FFF1FEC0FFD1F8181680F6068C9013B
:100880000E94060428960FB6F894DEBF0FBECDBFB7
:10089000CF91DF91089561E00E94060480ED97E01A
:1008A0000E9430110895CF93DF93EC01423018F08D
:1008B0008F8588608F874B8B1C8A222329F04130DB
:1008C00019F48F8584608F8780E593EC0E94301146
:1008D0008C8160E00E9436128E8160E00E943612A8
:1008E0008D818F3F19F060E00E9436126F8564FDA4
:1008F0001DC0CE0163E00E94A10384E991E10E9442
:100900003011CE0163E00E94A10384E991E10E94CD
:100910003011CE0163E00E94A10386E990E00E94BD
:100920003011CE0162E00E94A10316C06062CE01C8
:100930000E94060484E991E10E9430116F85606293
:10094000CE010E94060486E990E00E9430116F8576
:100950006062CE010E9406046F856062CE010E9433
:10096000060484E0888BCE010E941204CE010E940E
:100970004B0482E0898BCE0166E00E940604DF9181
:10098000CF9108956F927F928F92AF92CF92EF9214
:100990000F931F93DF93CF93CDB7DEB73C01162F94
:1009A000842FF301448325830683E782C086A186D2
:1009B00082869D8593879E8594879F859587988954
:1009C000968761E00E94F711F30185818F3F19F04E
:1009D00061E00E94F711F301868161E00E94F71146
:1009E000112319F0F301178603C080E1F301878713
:1009F000C30160E141E020E00E945304CF91DF9108
:100A00001F910F91EF90CF90AF908F907F906F904C
:100A100008958F92AF92CF92EF920F931F93CF933F
:100A2000DF93DC01362F542F722F102FAE2C8C2C1D
:100A300013961C921E92129786E792E011969C9351
:100A40008E9300D000D0EDB7FEB73196CDB7DEB7AC
:100A50001982118212821382CD0161E0432F2FEFA0
:100A6000052FE72EC12E0E94C2040F900F900F9009
:100A70000F90DF91CF911F910F91EF90CF90AF909A
:100A80008F90089583E060E00E94F7110E946C0B44
:100A900008959F92AF92BF92CF92DF92EF92FF9212
:100AA0000F931F93CF93DF93982E83E00E947511CD
:100AB000EC0180919202909193029E01281B390BC8
:100AC000C9010E943E0C0A9708F440C0D0939302DB
:100AD000C093920200D000D0BE0180E090E024E6F6
:100AE00030E040E050E0ADB7BEB711962D933D9396
:100AF0004D935C93149720E030E040E050E0E1E05B
:100B0000EE2EE4E0FE2E012D112DAA24BB2465015A
:100B10000E9426106093660200D0EDB7FEB73196B2
:100B200080E091E0ADB7BEB712969C938E9311977B
:100B3000D383C283648315820E942608EDB7FEB773
:100B400036960FB6F894FEBF0FBEEDBF80916602D9
:100B5000891518F00E94D10A02C00E94540B0E940D
:100B6000030BDF91CF911F910F91FF90EF90DF90DA
:100B7000CF90BF90AF909F900895CF92EF920F9338
:100B800084E992E067E046E025E004E053E0E52EEA
:100B900032E0C32E0E9409050F91EF90CF90089587
:100BA000FF920F931F93CF93DF9382E00E94751102
:100BB0008C0181E00E947511EC018091A902909155
:100BC000AA029801281B390BC9010E943E0C0A9702
:100BD00010F4FF2406C01093AA020093A902FF2478
:100BE000F3948091AB029091AC028C1B9D0B0E9400
:100BF0003E0C889710F4FF20E1F0D093AC02C09334
:100C0000AB02005E1C4FC8018C1B9D0B65E070E0C1
:100C10000E94A9126F3F710521F01CF06FEF70E088
:100C200005C06C38710514F46CE870E089E00E942E
:100C30009711DF91CF911F910F91FF900895EF923F
:100C4000FF920F931F93DF93CF9300D000D0CDB7C7
:100C5000DEB77C010E941D0C2091AD023091AE02E6
:100C60004091AF025091B002621B730B840B950B45
:100C7000645F71408040904008F40BC10E941D0CDD
:100C80006093AD027093AE028093AF029093B00276
:100C90002091B1023091B202D7018D919C91281719
:100CA0003907A1F184E992E060E041E00E941C0470
:100CB00000D000D000D0EDB7FEB731968E010F5FA7
:100CC0001F4FADB7BEB712961C930E93119786E2D5
:100CD00091E093838283D7018D919C919583848346
:100CE0000E948D00EDB7FEB736960FB6F894FEBFA2
:100CF0000FBEEDBF84E992E0B8010E941010D70149
:100D00008D919C919093B2028093B1029091B30225
:100D1000F7018281981791F184E992E068E041E05F
:100D20000E941C0400D000D000D0EDB7FEB7319671
:100D30008E010F5F1F4FADB7BEB712961C930E9377
:100D400011978BE291E093838283D70112968C9165
:100D5000848315820E948D00EDB7FEB736960FB6DC
:100D6000F894FEBF0FBEEDBF84E992E0B8010E9487
:100D70001010D70112968C918093B3029091B40217
:100D8000F7018381981791F184E992E06BE041E0EB
:100D90000E941C0400D000D000D0EDB7FEB7319601
:100DA0008E010F5F1F4FADB7BEB712961C930E9307
:100DB00011978BE291E093838283D70113968C91F4
:100DC000848315820E948D00EDB7FEB736960FB66C
:100DD000F894FEBF0FBEEDBF84E992E0B8010E9417
:100DE0001010D70113968C918093B40284E992E09D
:100DF0006DE041E00E941C0480916702882319F491
:100E000060E371E002C062E371E084E992E00E9475
:100E1000101090E080916702882309F491E090938C
:100E200067029091B502F7018481981791F184E9E6
:100E300092E06EE041E00E941C0400D000D000D09F
:100E4000EDB7FEB731968E010F5F1F4FADB7BEB73E
:100E500012961C930E9311978BE291E093838283F9
:100E6000D70114968C91848315820E948D00EDB772
:100E7000FEB736960FB6F894FEBF0FBEEDBF84E9FD
:100E800092E0B8010E941010D70114968C918093C3
:100E9000B5020F900F900F900F90CF91DF911F919F
:100EA0000F91FF90EF900895AF92BF92CF92DF9293
:100EB000EF92FF920F931F93DF93CF9300D00F9287
:100EC000CDB7DEB75C0174E9E72E72E0F72EC701FB
:100ED00064E040E00E941C0400D000D000D0EDB7D8
:100EE000FEB731968E010F5F1F4FADB7BEB712969A
:100EF0001C930E9311976BE2C62E61E0D62ED3821F
:100F0000C282D5018C91848315820E948D008DB799
:100F10009EB706960FB6F8949EBF0FBE8DBFC70151
:100F2000B8010E941010C7016DE040E00E941C044F
:100F300000D000D000D0EDB7FEB73196ADB7BEB748
:100F400012961C930E931197D382C282D5011196EB
:100F50008C91848315820E948D008DB79EB7069672
:100F60000FB6F8949EBF0FBE8DBFC701B8010E9497
:100F700010100F900F900F90CF91DF911F910F9154
:100F8000FF90EF90DF90CF90BF90AF900895FF92C9
:100F90000F931F93F82E04E912E0C80160E04F2D73
:100FA0000E941C04C80164E371E00E941010C80193
:100FB00060E04F2D0E941C041F910F91FF90089537
:100FC0000F931F9300D085E491E0EDB7FEB79283B5
:100FD00081830E9426080F900F9081E060E00E94BC
:100FE000F71182E060E00E94F71104E912E0C80105
:100FF00060E142E020E00E945304C8010E940A041C
:1010000089E061E00E94F71189E068EC70E00E94DD
:10101000971180E00E94C707C8016DE571E00E944A
:10102000101081E00E94C707C8016EE671E00E94BF
:1010300010100E941D0C6093AD027093AE0280935D
:10104000AF029093B0021F910F910895AF92BF929B
:10105000CF92DF92EF92FF920F931F93DF93CF9384
:10106000CDB7DEB7C857D0400FB6F894DEBF0FBE7D
:10107000CDBF95E8E92EF12CEC0EFD1ED701AD9009
:10108000BD907D01EDB7FEB73E970FB6F894FEBF59
:101090000FBEEDBF31968E010F5F1F4FADB7BEB7CC
:1010A00012961C930E9311978FE791E0938382839E
:1010B0008091B8029091B902958384838091BA029D
:1010C000868317828091BB02808711868091BC0243
:1010D000828713868091BD029091BE029587848796
:1010E0000E948D00EDB7FEB73E960FB6F894FEBF96
:1010F0000FBEEDBF8BE7C82E83E0D82EC601B80126
:101100000E941010C801B501A7010E94B100C601DC
:10111000B8010E941310C858DF4F0FB6F894DEBF15
:101120000FBECDBFCF91DF911F910F91FF90EF9038
:10113000DF90CF90BF90AF9008954091BF02509143
:10114000C0026091C1027091C20288EB92E00E94DD
:10115000730B0E941D0C2091C3023091C402409178
:10116000C5025091C602621B730B840B950B685E1F
:1011700073408040904040F10E941D0C6093C30278
:101180007093C4028093C5029093C6020E94260CFD
:101190009C018091C7029091C80282179307A1F029
:1011A0003093C8022093C70200D000D08FE991E0AD
:1011B000EDB7FEB792838183348323830E94260890
:1011C0000F900F900F900F9008958BE793E040E001
:1011D00052EC61E070E00E94200E0E941D0C6093B2
:1011E000BF027093C0028093C1029093C20208951F
:1011F00087E699E090936902809368021092CD028D
:101200000895FC0182818C7F828320916802309155
:101210006902CF01F901099508950E941D0C6093A0
:10122000C9027093CA028093CB029093CC0283E3ED
:1012300099E0909369028093680288E060E00E94E0
:10124000361208950E941D0C6093C9027093CA0261
:101250008093CB029093CC028DE499E09093690245
:101260008093680208950E941D0C2091C90230915C
:10127000CA024091CB025091CC02621B730B840BCB
:10128000950B695873418040904030F088EF98E0AA
:10129000909369028093680208950E941D0C20912A
:1012A000C9023091CA024091CB025091CC02621B1C
:1012B000730B840B950B615E73498440904030F052
:1012C0008DE099E090936902809368020895EF920F
:1012D000FF921F93CF93DF93EC018091CD0288237F
:1012E00009F4A3C00E941D0C2091C9023091CA02CA
:1012F0004091CB025091CC02621B730B840B950B77
:10130000695E73408040904008F08FC0A7C0E12F15
:10131000F0E0EE52FD4F8083812F8F5F8093CD02EE
:101320008A3008F49BC082ED92E06AE00E94FF0BD5
:101330001091D8021E3D09F491C088E061E00E943E
:1013400036128881912F981B892F0E94460C853078
:1013500008F464C02A81822F81608A83E12EFF24F1
:10136000888190E005968E159F0574F423602A838A
:1013700019830E941D0C6093CE027093CF0280935C
:10138000D0029093D10224C00E941D0C2091CE0265
:101390003091CF024091D0025091D102621B730B69
:1013A000840B950B605C77428940904068F400D0D4
:1013B00086EB91E0EDB7FEB7928381830E94260809
:1013C00019830F900F9004C08981811708F4198345
:1013D00018838DB79EB708970FB6F8949EBF0FBEBF
:1013E0008DBFEDB7FEB731968EEE91E0ADB7BEB7CB
:1013F00012969C938E931197F382E2828981848363
:1014000015828A81868317820E942608EDB7FEB76F
:1014100038960FB6F894FEBF0FBEEDBF82E299E09A
:10142000909369028093680219C00E941D0C60931A
:10143000C9027093CA028093CB029093CC021091A0
:10144000CD0280E00E94751123E0969587952A953C
:10145000E1F7853608F45BCF83E659CFDF91CF9172
:101460001F91FF90EF900895FF920F931F9300D06C
:1014700081E292E0EDB7FEB7928381830E94260855
:101480000F900F9083E090E00E945D0CF92E082FE2
:10149000192F81E0F8018283118210820E941D0CB5
:1014A0006093C9027093CA028093CB029093CC02DE
:1014B00088E061E00E94F711802F9F2D1F910F910E
:1014C000FF9008950E944F0C0E949D088091DC02BD
:1014D0009091DD020E940109E091DC02F091DD02B1
:1014E0008281282F81FF1AC000D000D080E492E0D2
:1014F000EDB7FEB792838183238314820E9426086E
:101500000F900F900F900F900E941D0C6093DE02C1
:101510007093DF028093E0029093E102E091DC029D
:10152000F091DD02828180FF03C0CF010E94540749
:101530004091DE025091DF026091E0027091E10281
:1015400082EE92E00E94730B82EE92E00E941F06F0
:101550000E94D005E091DC02F091DD0280810E94C2
:10156000490564E670E080E090E00E94D71008959D
:101570000E945A0C0E94E5080E94E0070E94340A6B
:101580009093DD028093DC020E9442050E941D0CB4
:101590006093DE027093DF028093E0029093E10299
:1015A000089581E08093E9020895EF92FF920F93EE
:1015B0001F937C010E941D0C2091EB023091EC02E4
:1015C0004091ED025091EE02621B730B840B950B60
:1015D00000E010E06E157F058007910778F080919C
:1015E000EA028F5F8093EA020E941D0C6093EB0277
:1015F0007093EC028093ED029093EE021F910F9195
:10160000FF90EF9008951F938091E902882309F4D9
:1016100049C08091EA02863019F1873070F4833036
:1016200041F1843028F4813021F1823069F515C010
:10163000843099F0853041F51CC08930E9F08A305A
:1016400028F48730C9F08830F9F410C08B30A1F04D
:101650008B3060F08C30C1F414C088EE93E002C08F
:1016600084EF91E00E94D50A10E012C088EC90E06F
:10167000F9CF88EE93E002C088EC90E00E94D50A92
:1016800006C080ED97E0EECF81E08093EA0211E0A2
:1016900080916A02811721F08AE0612F0E94361240
:1016A00010936A021F9108958091E902882389F0BE
:1016B00081E08093EA028AE060E00E9436120E9494
:1016C0001D0C6093EB027093EC028093ED029093FB
:1016D000EE021092E90208958AE061E00E94F7119B
:1016E0000E94540B08954F925F926F927F928F9257
:1016F0009F92AF92BF92CF92DF92EF92FF920F93A1
:101700001F932C017A018B010E941D0C3B014C019F
:101710006E187F08800A910AC401B30128EE33E0F5
:1017200040E050E00E94D01279018A01C801B7015F
:1017300020E831E541E050E00E94D012F20131830F
:10174000208340E050E0CA01B90120E83EEA4EEFB4
:101750005FEF0E948A125B016C01AE0CBF1CC01EC1
:10176000D11EC601B50120E13EE040E050E00E94FC
:10177000D012F201228330E080E19EE0AC01249F90
:10178000C001259F900D349F900D1124AA2797FD2D
:10179000A095BA2FA81AB90ACA0ADB0AC601B50170
:1017A0002CE330E040E050E00E94D012F2012383AD
:1017B0008CE3289F90011124442737FD4095542F36
:1017C000A21AB30AC40AD50AA482C401B30128EE3E
:1017D00033E040E050E00E94D012F201768365834E
:1017E0001F910F91FF90EF90DF90CF90BF90AF903F
:1017F0009F908F907F906F905F904F900895CF93C0
:10180000DF93AC01782FDC0121E012C011963C91EE
:1018100011978A2F871B02C099838150EA01C80F54
:10182000D11DFE0191913917B8F330832F5F1196C6
:10183000261760F3DF91CF9108956091EF027091C8
:10184000F0028091F1029091F2020895DF93CF931C
:1018500000D0CDB7DEB78091A6039091A703009783
:1018600011F48AEA93E09E012F5F3F4F281B390B4A
:10187000C9010F900F90CF91DF9108959C0197FFC0
:1018800003C0309521953F4FC9010895992787FDE1
:10189000909597FF03C0909581959F4F08950E9462
:1018A000C9106093EF027093F0028093F10290935D
:1018B000F20208950E944F0C08950F931F93CF9347
:1018C000DF93BC018230910510F462E070E0E0919A
:1018D000A803F091A903A0E0B0E040E050E024C0EC
:1018E0008081918186179707D0F08617970771F44A
:1018F00082819381109729F013969C938E9312976F
:101900002CC09093A9038093A80327C041155105CB
:1019100019F08417950718F4EF018D01AC01DF0170
:10192000828193819C01F9013097D1F641155105CF
:10193000F9F0CA01861B970B8430910580F48A81E7
:101940009B810115110521F0F8019383828304C066
:101950009093A9038093A803FE01329645C0FE012F
:10196000E80FF91F619371930297998388833CC0B4
:101970008091A6039091A703892B41F480916D0279
:1019800090916E029093A7038093A60340916F02FB
:10199000509170024115510541F44DB75EB78091E9
:1019A0006B0290916C02481B590B2091A603309159
:1019B000A70324173507B0F4CA01821B930B8617BF
:1019C000970780F0AB014E5F5F4F8417950750F08B
:1019D000420F531F5093A7034093A603F90161934D
:1019E000719302C0E0E0F0E0CF01DF91CF911F9151
:1019F0000F910895CF93DF939C01009709F48FC056
:101A0000EC0122971B821A826091A8037091A903AE
:101A10006115710581F488819981820F931F20914E
:101A2000A6033091A7032817390739F5D093A703E8
:101A3000C093A60374C0DB0140E050E0AC17BD07C3
:101A400008F1BB83AA83FE0121913191E20FF31FBC
:101A5000AE17BF0779F48D919C911197280F391F0C
:101A60002E5F3F4F3983288312968D919C91139757
:101A70009B838A834115510571F4D093A903C093C8
:101A8000A8034DC012968D919C911397AD010097BC
:101A900011F0DC01D3CFDA011396DC93CE931297C9
:101AA000FA0121913191E20FF31FCE17DF0769F49C
:101AB00088819981280F391F2E5F3F4FFA013183AA
:101AC00020838A819B8193838283E0E0F0E0DB01C5
:101AD00012968D919C911397009719F0BC01FD010E
:101AE000F6CFAB014E5F5F4FDB018D919C91840F70
:101AF000951F2091A6033091A7032817390779F481
:101B0000309729F41092A9031092A80302C01382FF
:101B10001282425050405093A7034093A603DF9196
:101B2000CF91089508951F920F920FB60F9211242E
:101B30002F933F934F938F939F93EF93FF938091B6
:101B4000C00082FD1DC04091C6002091330330913A
:101B500034032F5F3F4F2F73307080913503909186
:101B600036032817390771F0E0913303F0913403FD
:101B7000ED50FD4F4083309334032093330302C074
:101B80008091C600FF91EF919F918F914F913F916E
:101B90002F910F900FBE0F901F901895E091870323
:101BA000F0918803E05CFF4F819191912081318118
:101BB000805C9F4F821B930B60E470E00E94BD121B
:101BC000892B11F00E94920D08951F920F920FB66B
:101BD0000F9211242F933F938F939F93EF93FF9333
:101BE00020917703309178038091790390917A0363
:101BF0002817390731F48091C1008F7D8093C1008F
:101C000014C0E0917903F0917A03E95CFC4F2081E4
:101C10008091790390917A0301968F7390709093DD
:101C20007A03809379032093C600FF91EF919F91EF
:101C30008F913F912F910F900FBE0F901F9018958D
:101C4000AF92BF92DF92EF92FF920F931F93CF93C9
:101C5000DF93EC017A018B01DD24403081EE5807DF
:101C600080E0680780E0780711F0DD24D39491E0EC
:101C7000A92EB12CEC89FD89DD2069F0C50108A0F1
:101C800002C0880F991F0A94E2F7808360E079E030
:101C90008DE390E005C0108260E874E88EE190E08A
:101CA000A80197010E94D01221503040404050407E
:101CB000569547953795279580E12030380720F0D5
:101CC000DD2011F0DD24D6CFE889F9893083EA8957
:101CD000FB89208319A2EE89FF89408121E030E051
:101CE000C9010C8C02C0880F991F0A94E2F7482B97
:101CF0004083EE89FF894081C9010D8C02C0880FA5
:101D0000991F0A94E2F7482B4083EE89FF894081AE
:101D1000C9010E8C02C0880F991F0A94E2F7482B64
:101D20004083EE89FF8980810F8C02C0220F331F10
:101D30000A94E2F7209528232083DF91CF911F9109
:101D40000F91FF90EF90DF90BF90AF900895DC016E
:101D50001C96ED91FC911D97E05CFF4F8191919154
:101D600020813181805C9F4F821B930B60E470E087
:101D70000E94BD120895DC011C96ED91FC911D9707
:101D8000E05CFF4F20813181E054F040DF01AE5B29
:101D9000BF4F8D919C9111972817390719F42FEF98
:101DA0003FEF07C08D919C91E80FF91F8081282F8C
:101DB00030E0C9010895DC011C96ED91FC911D975E
:101DC000E05CFF4F20813181E054F040DF01AE5BE9
:101DD000BF4F8D919C9111972817390719F42FEF58
:101DE0003FEF10C08D919C911197E80FF91F208152
:101DF0008D919C91119701968F73907011969C9381
:101E00008E9330E0C9010895DC0191968C919197F1
:101E1000882339F05496ED91FC915597808186FF87
:101E2000F9CF91961C920895CF93DF93EC01EE8544
:101E3000FF85E05CFF4F20813181E054F0402F5F4F
:101E40003F4F2F733070DF01AE5BBF4F8D919C9180
:101E5000119728173907D1F3E05CFF4F80819181FA
:101E6000E054F040E80FF91F6083EE85FF85E05CE9
:101E7000FF4F31832083EE89FF89208181E090E04C
:101E80000F8C02C0880F991F0A94E2F7282B208339
:101E900081E089A3EC89FD8980818064808381E071
:101EA00090E0DF91CF91089510927E0310927D0310
:101EB00088EE93E0A0E0B0E080937F0390938003EE
:101EC000A0938103B093820386E892E090937C0311
:101ED00080937B0383EF92E0909388038093870342
:101EE00087E393E090938A038093890385EC90E0E5
:101EF00090938C0380938B0384EC90E090938E03FB
:101F000080938D0380EC90E09093900380938F03F7
:101F100081EC90E0909392038093910382EC90E0A7
:101F2000909394038093930386EC90E090939603B0
:101F30008093950384E08093970383E080939803D4
:101F400087E08093990385E080939A0381E08093F2
:101F50009B030895CF92DF92EF92FF920F931F930E
:101F6000CF93DF937C016B018A01C0E0D0E00FC00A
:101F7000D6016D916D01D701ED91FC910190F08139
:101F8000E02DC7010995C80FD91F01501040011558
:101F9000110571F7CE01DF91CF911F910F91FF9045
:101FA000EF90DF90CF900895EF92FF920F931F93E1
:101FB0008C01DC01ED91FC910190F081E02D6DE050
:101FC00009957C01D801ED91FC910190F081E02D03
:101FD000C8016AE009959C012E0D3F1DC9011F91A2
:101FE0000F91FF90EF900895CF93DF93EC0161156F
:101FF000710519F420E030E00FC0DB010D900020E6
:10200000E9F71197A61BB70BE881F9810280F381EC
:10201000E02DAD0109959C01C901DF91CF91089593
:102020000E94F40F0895EF92FF920F931F937C018B
:102030000E94F40F8C01C7010E94D40F080F191FD2
:10204000C8011F910F91FF90EF9008952F923F923A
:102050004F925F926F927F928F929F92AF92BF92B8
:10206000CF92DF92EF92FF920F931F93DF93CF9364
:10207000CDB7DEB73B014C0119012A016D897E897C
:102080008F89988D6A197B098C099D09621A730AD8
:10209000840A950AA40193010E948A12E218F308A7
:1020A00004091509A80197010E94F2122A0D3B1D8F
:1020B0004C1D5D1DB901CA01CF91DF911F910F9198
:1020C000FF90EF90DF90CF90BF90AF909F908F9058
:1020D0007F906F905F904F903F902F90089508955C
:1020E000CF93DF930E943A110E946F100E94B80AAA
:1020F000CEECDDE00E94620A2097E1F30E94CE0D53
:10210000F9CF1F920F920FB60F9211242F933F9386
:102110008F939F93AF93BF938091A1039091A2035C
:10212000A091A303B091A4033091A5030196A11D32
:10213000B11D232F2D5F2D3720F02D570196A11DA6
:10214000B11D2093A5038093A1039093A203A093B4
:10215000A303B093A40380919D0390919E03A0914B
:102160009F03B091A0030196A11DB11D80939D0313
:1021700090939E03A0939F03B093A003BF91AF9150
:102180009F918F913F912F910F900FBE0F901F90B5
:1021900018958FB7F8942091A1033091A203409134
:1021A000A3035091A4038FBFB901CA0108959B01F5
:1021B000AC017FB7F89480919D0390919E03A0910C
:1021C0009F03B091A00366B5A89B05C06F3F19F0AF
:1021D0000196A11DB11D7FBFBA2FA92F982F882767
:1021E000860F911DA11DB11D62E0880F991FAA1FC6
:1021F000BB1F6A95D1F7BC012DC0FFB7F894809141
:102200009D0390919E03A0919F03B091A003E6B51A
:10221000A89B05C0EF3F19F00196A11DB11DFFBF9E
:10222000BA2FA92F982F88278E0F911DA11DB11DA0
:10223000E2E0880F991FAA1FBB1FEA95D1F7861B02
:10224000970B885E9340C8F2215030404040504088
:1022500068517C4F211531054105510571F60895EE
:10226000019739F0880F991F880F991F02970197DE
:10227000F1F70895789484B5826084BD84B5816057
:1022800084BD85B5826085BD85B5816085BDEEE67E
:10229000F0E0808181608083E1E8F0E0108280815D
:1022A00082608083808181608083E0E8F0E08081CB
:1022B00081608083E1EBF0E0808184608083E0EBEB
:1022C000F0E0808181608083EAE7F0E080818460D3
:1022D000808380818260808380818160808380812F
:1022E000806880831092C1000895982F8E3008F086
:1022F0009E509770809171028295880F880F807C24
:10230000892B80937C0080917A00806480937A008E
:1023100080917A0086FDFCCF209178004091790071
:10232000942F80E030E0282B392BC90108951F93AA
:10233000CF93DF93182FEB0161E00E94F7112097F4
:1023400009F44AC0CF3FD10509F449C0E12FF0E0BC
:10235000E255FF4F84918330C1F0843028F48130FE
:1023600051F08230B1F50CC0863019F1873049F157
:10237000843079F514C084B5806884BDC7BD33C08E
:1023800084B5806284BDC8BD2EC080918000806805
:1023900080938000D0938900C093880024C08091EE
:1023A0008000806280938000D0938B00C0938A006D
:1023B0001AC08091B00080688093B000C093B300D1
:1023C00012C08091B00080628093B000C093B400CE
:1023D0000AC0C038D1051CF4812F60E002C0812FF3
:1023E00061E00E943612DF91CF911F910895CF9343
:1023F000DF93482F50E0CA0186569F4FFC0134916D
:102400004A575F4FFA018491882369F190E0880F61
:10241000991FFC01E859FF4FA591B491FC01EE58BA
:10242000FF4FC591D491662351F42FB7F8948C9146
:10243000932F909589238C93888189230BC06230D8
:1024400061F42FB7F8948C91932F909589238C93F6
:102450008881832B88832FBF06C09FB7F8948C9107
:10246000832B8C939FBFDF91CF910895482F50E02D
:10247000CA0182559F4FFC012491CA0186569F4F85
:10248000FC0194914A575F4FFA013491332309F4C8
:1024900040C0222351F1233071F0243028F4213040
:1024A000A1F0223011F514C02630B1F02730C1F070
:1024B0002430D9F404C0809180008F7703C08091CC
:1024C00080008F7D8093800010C084B58F7702C01C
:1024D00084B58F7D84BD09C08091B0008F7703C023
:1024E0008091B0008F7D8093B000E32FF0E0EE0F7D
:1024F000FF1FEE58FF4FA591B4912FB7F8946623B4
:1025000021F48C919095892302C08C91892B8C9316
:102510002FBF0895629FD001739FF001829FE00D4D
:10252000F11D649FE00DF11D929FF00D839FF00D52
:10253000749FF00D659FF00D9927729FB00DE11DFE
:10254000F91F639FB00DE11DF91FBD01CF011124DB
:102550000895AA1BBB1B51E107C0AA1FBB1FA617EA
:10256000B70710F0A61BB70B881F991F5A95A9F73C
:1025700080959095BC01CD01089597FB092E072603
:102580000AD077FD04D0E5DF06D000201AF470955C
:1025900061957F4F0895F6F7909581959F4F089527
:1025A000A1E21A2EAA1BBB1BFD010DC0AA1FBB1F57
:1025B000EE1FFF1FA217B307E407F50720F0A21BC9
:1025C000B30BE40BF50B661F771F881F991F1A9436
:1025D00069F760957095809590959B01AC01BD0160
:1025E000CF01089597FB092E05260ED057FD04D084
:1025F000D7DF0AD0001C38F45095409530952195CE
:102600003F4F4F4F5F4F0895F6F790958095709527
:1026100061957F4F8F4F9F4F0895EE0FFF1F0590DD
:10262000F491E02D09942F923F924F925F926F9216
:102630007F928F929F92AF92BF92CF92DF92EF9252
:10264000FF920F931F93CF93DF93CDB7DEB7CA1BD3
:10265000DB0B0FB6F894DEBF0FBECDBF09942A88FE
:10266000398848885F846E847D848C849B84AA84A6
:10267000B984C884DF80EE80FD800C811B81AA8133
:10268000B981CE0FD11D0FB6F894DEBF0FBECDBFFE
:08269000ED010895F894FFCF5D
:1026980041646A757374656420616C61726D20733E
:1026A800656E73697469766974792E202575203D85
:1026B8002025752525002530336400253032640037
:1026C80020003A0020202020202020202020202028
:1026D8002020202000496E697469616C697A696EEE
:1026E80067204C4344206D6F64756C65004E4F57EE
:1026F8003A30302520204D41583A303025003030CE
:1027080030202D2D7E2030303A30303A3030003EA7
:102718003E5B253033752D253032753A25303275BC
:102728003A253032752C253033755D2D3E20005307
:102738007461747573202D3E204672656520524180
:102748004D3A202575005265736574696E67206D72
:1027580061782070726F63206261736564206F6EA8
:102768002061646F7074696F6E2074696D65206193
:1027780066746572207761746572696E67004D6F63
:1027880069737475726520686173206368616E6728
:102798006564203D20257525252C204D61783A203B
:1027A800257525252C205374617475733A2025648A
:1027B80000496E697469616C697A696E6720687925
:1027C80067726F6D65746572206D6F64756C6500F6
:1027D8005265636F676E697A656420706C616E74A8
:1027E800207761746572696E672C207374617475E3
:1027F800733A202575001E010D09FF8000AA030009
:102808000001000000000004AA0F000040001400AE
:10281800540000000000140FAA0FA70EDB0EBB0E19
:02282800040F9B
:00000001FF
